{
  "contractName": "TodoList",
  "abi": [
    {
      "constant": true,
      "inputs": [],
      "name": "taskCount",
      "outputs": [
        {
          "internalType": "uint256",
          "name": "",
          "type": "uint256"
        }
      ],
      "payable": false,
      "stateMutability": "view",
      "type": "function"
    },
    {
      "constant": true,
      "inputs": [
        {
          "internalType": "uint256",
          "name": "a",
          "type": "uint256"
        },
        {
          "internalType": "uint256",
          "name": "b",
          "type": "uint256"
        }
      ],
      "name": "add",
      "outputs": [
        {
          "internalType": "uint256",
          "name": "",
          "type": "uint256"
        }
      ],
      "payable": false,
      "stateMutability": "view",
      "type": "function"
    }
  ],
  "bytecode": "0x6080604052600360005534801561001557600080fd5b5060ae806100246000396000f3fe6080604052348015600f57600080fd5b506004361060325760003560e01c8063771602f7146037578063b6cb58a5146069575b600080fd5b605760048036036040811015604b57600080fd5b5080359060200135606f565b60408051918252519081900360200190f35b60576073565b0190565b6000548156fea265627a7a723158203d3fe9ff948cbf08e1d4b94a9b906089e709a78be43f60889c714a3320bbbbc864736f6c63430005100032",
  "source": "pragma solidity ^0.5.0;\n\ncontract TodoList {\n\n    uint public taskCount = 3;\n\n    function add(uint a, uint b) public view returns(uint) {\n      return a + b;\n    }\n\n}\n",
  "sourcePath": "/Users/mingweiliu/Work/eth-todo-app/api/contracts/TodoList.sol",
  "compiler": {
    "name": "solc",
    "version": "0.5.16+commit.9c3226ce.Emscripten.clang"
  },
  "schemaVersion": "3.4.7",
  "updatedAt": "2022-07-04T13:15:53.089Z",
  "networkType": "ethereum",
  "devdoc": {
    "methods": {}
  },
  "userdoc": {
    "methods": {}
  }
}